:400000000040002011000000010700000107000010B500F097FBC04610B51222164B1A60302000F0CBFF154A154B1A6088229201144B1A60144B154A1A60E8214901144ADC
:400040001160144A1A6080221206134B1A608022D202124B1A604122114B1A60013A114B1A601149072000F0E1FE072000F0C8FE00220E4B1A6010BD300010400600008019
:4000800004010B40040301400000014041FF00800003014040FF008008010B4000010B401401014008010140FD1000000C020B4010B572B600240FE02348620013195900AC
:4000C0000B00411889881A5AC31858880004104300F010FB0134E4B2012CEDD9EE2212021A4B1A60EE221A4B1A60553A194B1A6099231B04184A1360184A1360184A136093
:40010000184A117806230B43DBB21370C0235B03154A1360154A1360D8221201144B1A600322144B1A602132134B1A600223134A13603121124A1160124A1360FFF76CFF15
:4001400000F0C8FA10BDC0469030000000030240000402400007024000500F4020500F4030500F4000700F40080004400802044008030440000404400804044000070440AE
:40018000080704401807044010B5064C2378002B07D1054B002B02D0044800E000BF0123237010BD600100200000000014300000084B10B5002B03D00749084800E000BFFE
:4001C00007480368002B00D110BD064B002BFBD09847F9E7000000006401002014300000C00000200000000010B562B600F0ACF800F008FBFA20400000F050FE012000F0C0
:40020000CFFF012000F0D8FF264B1B78002B06D1254800F09DF8431E9841224B1870214B1B78002BF0D0002000F0BAFF1E4B1B78452B1ED0492B02D0412B18D10DE01A4BE7
:40024000DB78532B04D10621184800F0A7F80EE01121174800F0A2F809E0134B5B79322B05D1002000F09CFF0F4800F0A7F9002312E0012000F094FF0E4800F0A1FD062115
:400280000D4800F08BF8F2E7074AD05C0B49C8543021D1540133DBB2132BF5D90022014B1A70B1E77C010020C40100201830000020300000343000003C300000EC010020E6
:4002C00010B5002300F05CFBC4B200F031FB8307FBD5200010BDC046F0B583B00D001E006B46D91D0A7004000223012200F048FBC7B200F01DFB8307FBD5002F01D038003A
:4003000010E000F001FB012332002900200000F0ADFBC7B200F00CFBC307FBD5002FF2D100F0DEFA03B0F0BD10B50222FFF7C8FF10BDC04670B50C001D000123FFF7CCFFDA
:400340002870207870BDC04610B500F029FC10BD70B5060000F01EFD051E17D0002000F01FFF002000F028FF002405E0355500F011FD05000134E4B2002D03D0272C01D841
:400380002D2DF3D1012000F00BFF00E00024002C01D0012000E0002070BDC04670B506000D00002403E0305D00F038FC0134AC42F9DB70BD10B50200044C054B0C332100D4
:4003C0004920FFF7B7FF207810BDC046AC020020C400002010B5044B1870597019004920FFF7A2FF10BDC046C402002010B504000020FFF7DFFFC30702D52000FFF7DAFF47
:400400000020FFF7D7FF830703D5012000F046FDF6E721000120FFF7DDFF0020FFF7CAFFC30703D4012000F039FDF6E70220FFF7C1FF10BD10B5002408E020001430C0B239
:40044000FFF7D4FF044B18550134E4B2172CF4D90022014B1A7610BD9002002070B504000D000020FFF7A6FF8307FAD4802149420C43E1B20120FFF7ADFF0020FFF79AFFD6
:400480008307FAD429000120FFF7A4FF70BDC04670B505008478A4014278120103789B0014431C43E4B221000420FFF7D7FF2C74200070BD70B50500047924014179C90087
:4004C00082795200C3790C4314431C43E4B221000720FFF7C3FF6C74200070BD70B5164C217C0420FFF7BAFF0420FFF77FFFE07801F082FF114A124B01F07AF901F05AF9F2
:4005000000F0CCFC0024012000F0C8FC0420FFF76DFF05000134E4B2C82C03D906210948FFF73CFFAB07EED5FFF784FF19210648FFF734FF70BDC046C400002033333333B9
:400540003333174074300000900200200300303BDBB2092B10D90300413BDBB2052B02D83738C3B208E00300613BDBB2052B02D85738C3B200E000231800704770B5050038
:400580000078FFF7E3FF0001C4B26878FFF7DEFF2043C0B270BDC04670B506000025002008E0725D8400001943009B189BB2303B98B201358D42F4DB70BDC04670B50400CD
:4005C000C379473BDAB20B2A7AD893003D4AD3589F46437A472B20D1C37A572B0CD11330FFF7CCFF050020001830FFF7C7FF01002800FFF733FF10E0522B0ED11230FFF742
:40060000BDFFFFF7F3FE02002F4D3049280002F0DDF80E212800FFF7C1FE237B532B4FD1E37C462B11D12A4B5C7C08212143C9B20720FFF713FF0720FFF7D8FEFFF74EFF7D
:4006400021000720FFF70AFF3AE04E2B38D1FFF745FF35E016300321FFF79EFFC1B21C4BD9700520FFF7FAFE2AE00C300121FFF793FF03001648032213404370FFF708FF9C
:400680001EE013300121FFF787FF03001048032213400371FFF70EFF12E0437C4E2B01D06E2B03D101220A4B5A7106E0462B01D0662B02D10022064B5A710548FFF7FAFE61
:4006C00070BDC04644300000500200207C300000C40000200323044A1360044A13600022034B1A607047C0463000304030003140000E3F4010B50A00002102F05EF810BD2F
:4007000010B502F025F803680C2B00D1FEE7FEE710B50300094A1068C318094A9A1A802109018A4202DC054A136005E002F010F80C2303600120404210BDC046D80000203D
:400740005003002070B50F4E0F4D13E029686B68AC68002202E001C901C30432A242FAD1E868002202E0002102C304328242FAD11035013E002EE9D101F0F0FFFFF734FDD4
:40078000FEE7C046010000008031000010B50E4A136801218B43136000230AE0032B03D89A000A49505800E009489900094A885001332F2BF2D9FFF77BFC034A1168012351
:4007C0000B43136010BDC0460000104000000000010700000000002010B5082000F010FB10BDC04610B500F01DF810BD10B5044A1368802109060B431360FFF7EDFF10BDED
:400800000000244010B5064B1B78002B04D1FFF7E9FF0122024B1A70FFF7E8FF10BDC0468001002010B50024194B1C60194A1A4B1A601A4B1A4A13601A4A14601A4A14608B
:400840001A4A13601A4B1C60082000F0E3FA0321082000F0FDFA1749082000F0E7FA164B1C60164B1C60164B1C601422FF32154B1A60154B1C60154B1C60043AFF3A144BD9
:400880001A70144B1C80144B1C60144B1C6010BD000024407708008060002440070100800003244004032440100324400002244004022440F1110000C80E2440880E244032
:4008C000480F2440080F2440C80F2440880F2440C6020020D4020020E4020020CC02002010B5082000F096FA0022054B1A60054A138801218B431380082000F081FA10BD94
:40090000E4020020D402002010B5082000F082FA0022054B1A60054A138802218B431380082000F06DFA10BDCC020020D402002010B5082000F06EFA074B1C88A2B2140035
:40094000064B1B789B0602D504231A4394B2082000F056FA200010BDD4020020C6020020054B1B682022134000D0082301221343024A13607047C046640024406800244032
:40098000F0B583B001900C0017001D00002917D0284B1B78102B08D1082000F03BFA264B1B68DB070ED508260FE0224B1B78602B0AD1224A138808218B431380002604E040
:4009C000042602E0002600E00426002E2BD12822184B1A7000231A4A13601A4A13601A4B1F601A4B1C60EAB2194B1A70019B5C00FF231C40114A138802218B431380154AEB
:400A0000154B1A604023154A1360154A1360EB0704D5FFF7A5FF134B1C6004E0114B1C600222114B1A60082000F0EAF9300003B0F0BDC046C602002064002440D4020020A9
:400A4000C8020020CC020020D0020020E8020020DC02002017030000000F2440800F2440880F24404002244068002440F0B583B001900C0017001D00002917D02D4B1B78F3
:400A8000102B08D1082000F0C5F92B4B1B68DB070ED508260FE0274B1B78602B0AD1274A138808218B431380002604E0042602E0002600E00426002E35D129221D4B1A70B9
:400AC00000221F4B1A601F4A17601F4B1C60EBB21E490B70019B5C00FF231C400120044316490B8883430B8019491A4B19601368072B03D80422184B1A6008E0174A1368FB
:400B0000802149000B4313600822134B1A60EB0704D5FFF725FF124B1C6004E0104B1C600222104B1A60082000F06AF9300003B0F0BDC046C602002064002440D4020020DF
:400B4000E4020020E0020020D8020020DC02002017030000000F2440C80F244060002440400224406800244010B50B2000F048F910BDC04610B500F0FBF810BD10B500F059
:400B800085F810BD10B5054A1368802109060B431360FFF7E9FFFFF7EDFF10BD0000274010B5064B1B78002B04D1FFF7E7FF0122024B1A70FFF7E6FF10BDC0468801002021
:400BC000094B1A68094B1B689A420BD0074B1B680133292B00D10023054AD05CC0B2034A136000E00020704744030020F402002018030020074B1B68074A1268934203D3D9
:400C0000054A1068181A04E0034A10681B1A29331800704744030020F4020020144B1A68144B1B689A4208D1134B1B681F221340102B02D0114B186019E00D4B1A68013261
:400C4000202A00D100220B4B1B689A42FBD002230B490B60C0B20B49885405490A600A4A1268134203D1084A11680B4313607047F0020020EC020020080227404002274005
:400C8000800F2740F8020020880F274070B51F4A1F4B1A6000241F4B1C6001221E4B1A601E4B1F490B6007201E4908601E490C601E490A601E4A13601E4B1C6004251E4B7C
:400CC0001D60043000F0A6F803210B2000F0C0F81A490B2000F0AAF8194B1C60194B1C60194B1C60194B1C60194B1D60194B1C601A68194B1A80194B1C60194B1C60194BB9
:400D00001C70194B1C60194B1C6070BD0B080002000027404000274048002740070000800003274004032740100327404400274000022740040227405000274065150000DD
:400D4000880E2740C80E2740480F2740080F2740C80F2740880F27409001002044030020F402002041030020F0020020EC02002005490B68F0229343603A13430B60034BBD
:400D80001A88034B1A6070470007024090010020880F274010B5FFF72DFF002802D0FFF70FFF00E00020054B1A68D8239B001A4203D01A00014B1A60002010BDC00F27409B
:400DC00070B50500002402E0FFF728FF0134285D0028F9D170BDC046024A1168024B0B401360704700002240FFFFFFBF034B18688023DB05184000D001207047000022406F
:400E00001F2318401E3B8340014A13607047C04600E100E01F2318401E3B8340014A13607047C04680E100E001BE704770B504000D001F2802D90020FFF7F6FF1034A4008D
:400E400080239B059C4664442068256070BDC04670B504000E00032902D90020FFF7E4FF1F2C02D90020FFF7DFFF03252540ED00063500F0B6F9A408A400074B9C46644494
:400E800021680323AB4099430B003100A9401943216000F0AAF970BD00E400E010B5040006E0084B586800F093F9074B9C46644480231B029C42F4D8024B9868604300F0D2
:400EC00087F910BDDC0000200080FFFF30B583B000F0BEF800285AD000F083F9040000230AE02C4A12683F210A402B49C95C8A4201D1033303E001332D2BF2D90323274AC6
:400F00001268D20606D1254802681F218A4313390A430260224A1168224A0A40224959438020C00184466144C90B01394905490D0A43A021490311430800192B02D81B4B4B
:400F40001A430EE01A4A9A1812781A3B1249C9183023CB5CD318FF2B00D9FF239B0502001A430F4B1A60134D2B680193302000F06BFB114A13688021C9050B431360142031
:400F8000FFF78CFF019B2B60200000F02EF903B030BDC0462CFF0B409C30000034FF0B400800224000F800C040420F000000D43FCDF1FF0F300010400000224030B587B05C
:400FC000040000F00EF90500FFF710FF002803D0FFF702FF012100E00021104B1B6800930F4B1B680193033C0E4B1B5D02930E4B1B68039304AA0D4B04936B4605930C4BA1
:401000001A600C480C4A10601B68012901D1FFF75DFF280000F0E9F807B030BD08010B4000010B409C30000030001040B6EA0000080010401700008004001040034B186811
:40104000C0231B02184000D00120704700010B40034B1B68002B01DA012000E0002070470000224010B500F0BCF8044A1368C02109020B43136000F0B8F810BD00010B407B
:4010800010B500F0AEF808490A68084B1A408024E40122430A600A6813408022120213430B6000F0A2F810BD00010B40FF3FFFFF70B5050000F095F80400FFF7BFFF00286B
:4010C00003D0FFF7DDFF012100E0002108482840084A1568084B2B40184310601368012901D1FFF7BFFF200000F07FF870BDC0460404040010020B40FBFBFBFF10B5244BA6
:401100001B685B0715D5234B5B685B070ED5224B596A042001401F4C62688A4362605A6A82435A629B69002B00D098470420FFF7BFFF174B1B685B0518D5164B5B685B0560
:4011400010D5154B596A8022D2001140114842688A434260596A114A0A405A62DB69002B00D098478020C000FFF7A2FF084B1B685B030CD5074B5B685B0304D5064B1B6AC0
:40118000002B00D098478020C002FFF791FF10BD10020B40F000002094010020FFFBFFFF04490A68D2B240239A43800118401043086070470000044004490A68D2B24023CE
:4011C0009A4380011840104308607047000204400230800803D00138FDD1C046C046C0467047EFF3108072B6704780F31088704710B5B94B1B68002B00D09847B74B1B6866
:40120000DB0702D50022B64B1A60B64B1B789B0628D5B54B1B68DB0507D5B44A1188C0239B000B431380012300E00023AE4A1268D20706D5AD4A118890239B000B431380E5
:401240000123002B0FD0A74A1278D20701D5012200E00222A549088802430A800021A14A117000E000239F4A1278920600D417E19D4A1268D20611D510229D4B1A60994BA4
:401280001B78DB0701D5012300E00223974A11880B4313801022934B1A701BE1914A1278120720D5904A126892070AD50222904B1A608E4A118888239B000B431380012355
:4012C00011E0884A1278D20703D52521854A117009E02421834A1170864A1268002A02D01439854A11607F4A1278520700D4AEE07C4A1278D20749D5804A1268120727D55D
:401300007F4A12687F4909681F240C407E4909686418141B082C09D8002C16D17B4A11687B4B0B401360012308340EE008240CE0754A116877480068411877480068C0B21E
:401340000870116801311160013C002CF0D119E06A4A1268520715D56B4A11686D48006841186D480068C0B208701168013111601168634A1268914203D20421674A1160EF
:4013800000E001236649674A116060E0564A1268920726D50222564B1A6063490B681D321A40096880231B020B4000D001239B185E4A1168CB1A136012685D4B1A604B4A96
:4013C000118884239B000B4313805A4B1A68802149020A431A601968574A0A401A60012335E0564A1268D2061ED427E04F4A1168404A126891421DD23E4A1268013A4B49A4
:4014000009688A4204D140224D490A603A490A60464A11684B48006841180978C9B24A4801601168013111603F4A12681F210A40082ADBD11021424A116008E03F4A12685F
:40144000520604D5394B1A68394B1A600123002B40D02E4A11682E4B0B40136000233B4A1360254A13603A4B1B789B070ED51D4B1B78DB0701D5092300E00A231B4A11882C
:401480000B4313806022174B1A7023E0314B1B689B0601D5182200E01022204B1A6019E0104B1B78DB0615D42B4A13685B005B08136010210B4B1970144B186827490140C1
:4014C000196018682649014019601368802109060B43136010BDC046840100208C0E2440880E2440C60200200C0F2440D4020020000F2440D0020020880F2440CC0F244072
:40150000E002002008032440E402002060002440FFFEFFFFD80200204003244068002440ED0F0000C00F244008022440C8020020CC02002004022440FFFFFEFF8C0F24402F
:40154000800F2440E802002040022440C80F2440DC0200206400244000002440FF5FFFFFFFFCFFFF10B5274B1B68002B00D09847254B1B685B071DD5244B1B680133292BB9
:4015800000D10023224A1268934205D1214B1B682022214B1A7006E01E4A1268D2B21F49CA541A4A13601E4B1B68DB06E4D104221C4B1A601C4B1B689B0721D51B4B1A68E3
:4015C0001B4B1B689A4213D0194B1B680133202B00D10023174AD25CD2B217490A60144A1360164B1B681F221340102BE6D104E0134A136802218B4313600222114B1A60B7
:4016000010BDC0468C010020CC0F274044030020F402002040032740410300201803002008032740C00F27408C0F2740F0020020EC020020F8020020400227400802274024
:40164000880F2740800F274070B50400FFF7C9FD0500102C05D8104A136803218B43136016E0202C07D80C490B6803229343023A13430B600CE0302C07D807490B68032249
:401680009343013A13430B6002E00020FFF7CCFB2800FFF7AAFD70BD30001040002243088B4274D303098B425FD3030A8B4244D3030B8B4228D3030C8B420DD3FF220902EC
:4016C00012BA030C8B4202D31212090265D0030B8B4219D300E0090AC30B8B4201D3CB03C01A5241830B8B4201D38B03C01A5241430B8B4201D34B03C01A5241030B8B42F6
:4017000001D30B03C01A5241C30A8B4201D3CB02C01A5241830A8B4201D38B02C01A5241430A8B4201D34B02C01A5241030A8B4201D30B02C01A5241CDD2C3098B4201D3AE
:40174000CB01C01A524183098B4201D38B01C01A524143098B4201D34B01C01A524103098B4201D30B01C01A5241C3088B4201D3CB00C01A524183088B4201D38B00C01A09
:40178000524143088B4201D34B00C01A5241411A00D20146524110467047FFE701B5002000F006F802BDC0460029F7D076E770477047C04670B500220C4B04000D0000F00F
:4017C00091FE002804D12000290000F0DFFD70BD064B00222000290000F084FA00F0D6FD80231B069C466044F1E7C0460000E041F0B55F4656464D464446F0B40D0399464F
:401800004E002B0B87B00700924680469B46760DCC0F002E69D06D4B9E4235D05B468022DD001204430F13432B439B46C3009846674B00279C460023664401934A46150373
:401840005000D20F53462D0B400D914600D176E05E4A90426CD080225B0F120413435C4AED0094461D4353460022DB00604449463618701C6140029017430F2F00D9AFE04A
:401880005448BF00C759BF465B461F4300D088E000239B469846023308270193CEE74946022A6AD0032A00D109E2012A00D0BBE111400022002300259046CCB200212D0309
:4018C0000A0D12052D0B1543434A1B0515401D436D00E4076D0825434046290007B03CBC90469946A246AB46F0BD034352D05B46002B00D18AE1584600F0FEFD03000B3BB8
:401900001C2B00DD7BE11D22D31A3A0001005D46DA4008398D4013008F402B439B46B8462E4B00279C46002360444642019385E752462A432CD100250023022297E7524671
:401940002A4321D0002D00D154E1280000F0D4FD03000B3B1C2B00DD46E11D21CB1A51460200D9405346083A954093400D431B4A944660444042002279E7012400220C4037
:40198000124B0025904699E70025002301226EE703226CE700239B4698460133042701934CE703230C27019348E700238025984600242D03054B81E75D464346019A6FE724
:4019C0005D4643462100019A6AE7C046FF07000001FCFFFFE4300000FFFF0F80F30300004246120C91461A0C9446424617044A461B041B0C5A43604690464A4642431000DC
:401A0000039262461C003F0C7A437C4342440192220C9246019A5244904506D98246802040028046C24450460390100C049048462404240C1204121905922A0C2D042D0CD5
:401A400068432C00824648467C4350438146200C8046574357444744BA4503D9802040028046C144380C3F04B84648442404240C01900498A044404404905846000C8146E3
:401A800058460404200C8246070048465F434C464343604660436446834650464443380C8446E4186444A34203D980235B029C46E34448463F04230C3F0C2404E4195746DB
:401AC00068436F4384464D46504655434243380C814662444A445B44944503D9802040028446654403983F04834604983F0C8446E344C34580414042824610048446019888
:401B0000674484466744A344BC46A345A4419946D44464428742BF41D4458041E144A04699459B417F424042C8440743120CBA18A045A4415F423B0064422343D718434617
:401B40007D19DB0D6D021D435B465A02059B1A43531E9A415B46DB0D1A4343465B021343EA0107D501225C0813402343EA07029E13436D08574AB218002A4BDD580709D058
:401B80000F201840042805D0181D98429B415B42ED180300E80104D54F4A15408022D200B2184E48824200DDE7E60124DB08680718436D02530580462D0B5B0D0C407DE66D
:401BC000802259461203114208D0154206D115432D0398462D0B4C46414B6FE65D4615432D032D0B3E4B69E603005546283B9D400023BCE6504600F07FFC2030A8E6030065
:401C0000283B9F400023BB46984689E600F074FC203073E60124A61A382E07DD00220C4000230025904649E6029EA3E71F2E20DC20222C001800921BF0409440934004433A
:401C4000581E83411C43F540630709D00F232340042B05D023001C1D9C4292415242AD182B021FD5012400220C4001230025904624E61F202C004042821AD440202E1CD0A0
:401C80004022961BB5402B43581E83410720234318400025002809D00F2200251A401C00042AD8D1230068076D022D0B0124DB08034398460C40002300E60025E3E780227B
:401CC0000124120315432D0398462D0B0C40044BF4E5C046FF030000FFFFFFFEFE070000FF070000F0B557464E464546E0B40E001100F20F9246C500420F180337037400BE
:401D0000400A4E0F7F0A3043CF4E17435A00640D520DDB0FC900B24200D1E5E001267340A61AB446534500D1AFE0002E00DC0DE1002A3AD103000B4300D0E4E06B0709D039
:401D40000F232B40042B05D02B1DAB42AD416D427F191D003B0200D488E0BB4B01349C4200D110E13A00B94B51461A4001235007ED08520264050543120B640D0B40002149
:401D8000280012030D0D120B64052D0515436208AF4CDB072C401443640064081C4321001CBC90469946A246F0BDA74B9C42C5D080231B0418436346382B00DDFDE01F2BAE
:401DC00000DD30E1624620239B1A02009A40664690460A009940F24046464B1E99413243114363460200DA40691A8D429B410D00BA1A5B42D71A3B0235D57A02530A9846EA
:401E00004346002B00D1C4E0404600F075FB0300083B1F2B00DDC5E020222900D21A4746D1409F400A009D403A439C4200DDC0E01C1B631C1F2B00DDE4E0202114002800D0
:401E4000C91AD8408C408D400443DA40681E854117002543002471E7424663461A4300D14CE2674645466B0700D069E7012351467807ED08FA080B40054373498C4238D079
:401E800012036405120B640D79E7002E00DC9AE0002A47D06C4A944200D14FE78022120410436246382A00DC08E10143481E81410022C9B24919D219A942BF410D007F4275
:401EC000BF183A0200D442E15F4A0134944200D14EE101205D4A69083A4028400843D507054357089A4629E706000E4300D017E714E72900114300D1F9E1802109030A4309
:401F00001203120B3BE701235B429846C4446346002B72D1691A8D429B413F1A5B42FF1A0D0068E702000A4300D107E7012252429046C4446246002A00D0E6E06918A9427F
:401F4000B6413F187642F7190D00BAE7002E00D080E0621C5205520D012A00DCF9E06A1A91464D45B6413A1A7642921B9046120200D499E04D1BA9428941C71B49427A1A39
:401F800090469A463CE752460123002513400022F5E6280000F0B0FA20300300083B1F2B00DC39E72A002838824000259C4200DC3EE7264FE41A1740C0E60143481E81414D
:401FC0000022C9B210E7002E00D0F1E0621C94465205520D012A00DCA0E01B4A944500D1C5E06918A94292413F185242D2194908D5070D4357086446A0E6134B9C4200D008
:40200000D9E69BE611001F3CE1400C00202B00D180E04021CB1A9A4015436A1E95410027254300241FE763460200203BDA406346202B71D0402366469B1B98400143481E20
:40204000814111430022CFE6FF070000FFFF7FFFFFFF0F80002C48D0CA4CA24200D1A2E07442A1468024240427434C46382C00DDDBE01F2C00DD44E14E462024A41B3E0050
:40208000A640A246B0464C462E00E640B4464646644626435446A5406C1EA54134002C434D46EF400D1B28E04A4643464D461A4300D0A5E6002300240025DEE61F2A5ADC46
:4020C00066462022921B060096409146B04662460E00D640424616434A4691404A1E9141020060463143C240E4E63C002C435AD0F443A146002C52D14D1BA9428941C71B2B
:4021000049427F1A14009A4675E69E4A944200D0C7E613E600227FE700208FE7002C00D0C8E03B002B4300D10FE103000B4300D104E66918A9429B413F185B42DF193B024F
:4021400000D41AE1904B0D001F406446F6E59A4689E63A002A43002C5CD1002A75D102000A4300D1CAE007000D009A46E6E564460022002581E662460600203AD64062465E
:40218000B046202A00D1B7E040226646921B904001434246481E8141114300228AE6794CA24200D061E707000D0014009A46C5E5002C41D13C002C4378D0F443A146002C24
:4021C00020D0704CA24271D04C46382C00DDB2E01F2C00DDBCE02026341BA2463C005646B4404E46A0462C00F440A446444666463443A4465446A54064466E1EB54125432E
:402200004C46E7406D188D4289413F184942CF19140056E6002A2FD102000A4300D184E007000D009A46574C88E53D436F1EBD41ECB200270D1B60E7524CA24236D074427E
:4022400080263604A1463743BEE702000A4300D174E56A1A90464545B6413A1A7642921B9446120200D4F7E54D1BA9428941C71B49427F1A9A4661E502000A433AD0ED0836
:402280007C072C438025FA082D032A4208D0C7082F4205D145072C003A009A46C9080C43670FD200E5001743364C47E507000D00140043E53A002A4343D002000A4319D0D2
:4022C000ED087C072C438025FA082D032A4207D0C6082E4204D147073C003200C9080C43D700620FE50017439A46264C26E50022002544E5234C21E5002049E7002300258D
:40230000BBE54C463E00203CE6404C46B446202C31D040244E46A61BB7403D436C1EA54164462C4300270D1BE7E6802200231203144C0025A1E53D436F1EBD410027EDB247
:4023400060E707000D000F4CF8E407000D00F5E44E463C00203EF440A0464C46202C0ED040244E46A41BA7403D436F1EBD4144460027254346E70027CFE70D0073E5002782
:40238000F2E7C046FF070000FFFF7FFF0B0330B5134D1A0B4B005B0DC90F0024AB4211DD104CA34210DC8024640322430E4CE41A1F2C0CDD0D48C31ADA4013005C4200296B
:4023C00000D11C00200030BD094BCC18FAE7E040084CA44663449A4013000343EEE7C046FE0300001D0400003304000013040000FFFFFF7FEDFBFFFF70B5002830D0C317BE
:40240000C4185C40C50F200000F076F8174B184A1B1AD21A1F2A18DD164AD21A9440002224035B05240B5B0D0021100024030A0D1205240B1443104A1B0514401C436400B2
:40244000ED0764082C43210070BD210091400A000B21081AC4405B052403240B5B0DE3E70025002300240022DEE7C0461E0400003304000013040000FFFF0F808446101CBD
:4024800062468C46191C634600E0C0461FB500F0F5F8002801D40021C8421FBD10B500F049F84042013010BD10B500F0E7F8002801DB002010BD012010BDC04610B500F085
:4024C000DDF8002801DD002010BD012010BDC04610B500F06FF8002801DC002010BD012010BDC04610B500F065F8002801DA002010BD012010BDC0461C2101231B049842CE
:4025000001D3000C10391B0A984201D3000A08391B09984201D30009043902A2105C40187047C04604030202010101010000000000000000F0B55F4656464D464446F0B461
:402540001F035C00DB0F9A46194B0E034D00C90F8046360B6D0D8B4691463F0B640D9D4219D0134B9C421BD00123A54206D018003CBC90469946A246AB46F0BDBE42F6D1B3
:40258000C845F4D1D34510D0002DF0D1304303005A1E9341EBE7310001230143E7D1E0E73A430123002AE2D1DEE70023DFE7C046FF070000F0B55F46444656464D46F0B4D8
:4025C0001F033C0B2C4F0E034D00A3465C008446360B6D0DC90F9046640DDB0FBD422BD0254FBC422ED0002D0ED130430700814678427841002C17D15F463A4314D14B46F0
:402600000020002B0AD006E0002C02D15846024301D099421AD00123484218433CBC90469946A246AB46F0BD0028F2D058425841012240421043F1E737000743D0D00220AB
:402640004042EBE75F461743CDD0F8E7A542E2DC05DB5E45DFD808D000205E45DED248424841012340421843D8E7C445D3D80020C445F4D3D2E7C046FF070000F0B55F46DB
:402680004D4644465646F0B41C03240BA4462F4C0F034D005E00C90F80463F0B6D0D8B469146760DDB0FA54220D0284CA64222D0002D12D1384344424441002E20D0002CD1
:4026C0000DD05C42634101245B421C4320003CBC90469946A246AB46F0BD002E17D05B4519D05B465C4201231C43EFE7390002240143EBD1D9E7614602241143E6D1D7E75C
:4027000061460A43DBD100240028DFD0E9E761460A43E4D1E5E7B54203DD01225C421443D4E7B542CDDB6745DBD809D000246745CCD259464C426141012449420C43C5E750
:40274000C845CED80024C845F3D3BFE7FF070000014B18687047C046580100200E4B70B500251E000D4CE41AA410A54204D0AB00F35898470135F8E700F0F0FC084B00253C
:402780001E00084CE41AA410A54204D0AB00F35898470135F8E770BD68310000683100006831000070310000002310B59A4203D0CC5CC4540133F9E710BD0300821893428D
:4027C00002D019700133FAE7704700000EB410B59DB002A9029008610B48822488604861012040421FABC881084804CBA400006801938C8100F06EF80023029A13701DB0C7
:4028000010BC08BC03B01847FFFFFF7F58010020F0B58E6885B007000C00039201939E4243D890238A89DB001A423ED003250969236801985B1A029363695D43EB0F5D194B
:40284000029B6D1001331B18AB4200D91D00530510D52900380000F037FB061E14D0029A2169FFF7A1FFA289194B134080221343A38112E02A00380000F086FB061E0CD1AC
:402880002169380000F0D4FA0C23402201203B60A38940421343A38117E0029B2661F61826606561019EED1AA560019BB34200D21E0032000399206800F0A5FA0020A36872
:4028C0009B1BA36023689E19266005B0F0BDC0467FFBFFFFF0B59FB0029005938B890F0016001B0610D50B69002B0DD1402100F0EBFA38603861002804D10C23029A013835
:402900001360D8E040237B61002306AD6B6120336B761033AB7634002378002B03D1A31B049312D003E0252BF9D00134F4E7A31B320039000298FFF76BFF431C00D1B4E0FB
:402940006A69049B944663446B612378002B00D1ABE00122002352426A6002A95432521801342B60EB60AB601370AB65534E21780522300000F03CFA002807D00123801B19
:4029800083402A68013413432B60EFE72B68DA0604D55322202102A8121811701A0704D553222B2102A81218117022782A2A03D0099B00200A210EE0059A111D12680591F4
:4029C000002A01DB099204E05242EA60022213432B6001340BE02278303A092A04D84B4301349B180120F6E7002800D0099323782E2B1ED163782A2B0AD1059B02341A1D39
:402A00001B680592002B01DA01235B42079310E000230A201A0001346B6021783039092904D84243013452180123F6E7002B00D00792234E21780322300000F0D9F90028B2
:402A400006D04023801B83402A68013413432B60217806221B48661C297600F0C9F9002812D0194B002B06D10722059B073393430833059314E005AB00933A00134B29000C
:402A8000029800E000BF07E005AB00933A000F4B2900029800F08AF80390039B013304D06B69039A9B186B6135E7BB890B985B0601D5012040421FB0F0BDC046263100000B
:402AC0002C310000303100000000000011280000F7B5170001938A680B6900900C00934200DA130022003B6043321278002A01D001333B6023689B0602D53B6802333B60C8
:402B0000062523681D401ED0230043331B785A1E9341226892061CD53020E1184331087021005A1C45310978A2184332023311700FE022000123193201990098089EB04712
:402B4000431C0ED00135E3683A689B1A9D42F0DBDAE72200019943320098089DA847431C02D10120404220E006232068E1683A6803400025042B03D18D1AEB43DB171D4078
:402B8000A3682269934201DD9B1AED180027BD420AD0220001231A3201990098089EB047431CDED00137F2E70020FEBDF0B58BB006920A0043320793059004920A7E0C0068
:402BC000109B6E2A00D1ABE011D8632A22D009D8002A00D1B5E0582A00D0C5E045310A70814A4FE0642A1DD0692A1BD0BCE0732A00D1AAE009D86F2A29D0702A00D0B3E07F
:402C0000202209680A43226037E0752A1FD0782A33D0A9E00E001A684236111D196013683370A4E021681A68080606D4490604D5111D19600023D55E02E0111D19601568D0
:402C4000002D3BDA2D23049A6D42137036E021681A68080606D4490604D51568111D1960ADB202E0111D196015685F4B227E039308276F2A1DD00A271BE022007821453245
:402C800011705A4A19680392081D226818600D68100602D4500600D5ADB2D30702D520231A4322601027002D03D1202322689A4322602300002243331A7002E00A274A4BA3
:402CC00003936368A360002B09DB0422216891432160002D05D1049E002B11D07BE0002D79D0049E28003900FEF75EFD039B013E5B5C280033703900FEF7D0FC051EF1D14A
:402D0000082F09D12368DB0706D563682269934202DC3023013E3370049B9B1B23612BE009681A68080607D4490605D5111D19601368A28A1A8004E0111D1960136862695A
:402D40001A600023049E236116E01A68111D1960166800216268300000F04AF8002801D0801B6060636803E0260042363270012323610023049A1370079B09AA009321006F
:402D8000069B0598FFF7A4FE431C02D10120404227E02369320006990598079DA847431CF4D0236800259B070FD4099BE068984217DA180015E022000123193206990598EB
:402DC000079EB047431CE1D00135E368099A9B1A9D42F0DBE9E72600039B42361B7833708EE70BB0F0BDC0463731000048310000C9B28218904204D003788B4202D0013098
:402E0000F8E70020704710B5884202D98B18984201D3002305E09B1A013A08D3995C8154FAE7934203D0CC5CC4540133F9E710BD70B50500002944D00C1F2368002B00DAB8
:402E4000E418280000F0D8F81E4A13681100002B02D16360146031E0A3420DD92268A018834203D118685B688218226063600C6024E0A24203D813005A68002AF9D11E68EE
:402E80009819A0420BD12168711858181960824214D110685268411819605A600EE0A04202D90C232B6009E021686018824203D1106852684118216062605C60280000F0B8
:402EC0009CF870BDC0010020032370B5CD1C9D43083506000C2D01D20C2501E0002D01DBA94202D90C23336048E0300000F084F8234B1C681A002100002913D00B685B1B44
:402F00000DD40B2B02D90B60CC181EE08C4202D1636813601AE04B6863600C0016E00C004968E9E7174C2368002B03D1300000F051F820602900300000F04CF8431C18D0CA
:402F40000323C41C9C43A0420DD12560300000F054F8200007220B30231D9043C31A0ED05A42E2500BE0211A300000F033F8431CEBD10C233000336000F03FF8002070BDA9
:402F8000C0010020BC010020F8B506000C001500002904D11100FFF797FF040018E0002A03D1FFF745FF2C0012E000F027F885420ED929003000FFF787FF071E07D02100E3
:402FC0002A00FFF7F1FB21003000FFF731FF3C002000F8BD002370B5064C050008002360FDF796FB431C03D12368002B00D02B6070BDC04648030020704770470B1F1A6892
:40300000101F002A04DA891804390B68D01804387047000000000000415337323632000050536F432D5370656374726F6D65746572000000476F7420450000004578706F1E
:40304000727400006A060000C006000054060000C0060000C00600009A060000C0060000C0060000C006000082060000C0060000D20500004641494C454400005245475F55
:4030800056414C55457C3078253032580000000000300F40000400400F400004030405060708090A0B0C0E0F101112131415161718191B1C1D1E1F2021222325262728296B
:4030C0002A2B2E2F3031323334350000EEDBC9B9AA9B8E82766B60564D443B332C241D17100A0400E0190000A0180000A01800009E180000B8190000B8190000AA19000093
:403100009E180000B8190000AA190000B81900009E180000C0190000C0190000C0190000C01B00004300232D302B2000686C4C006566674546470030313233343536373852
:4031400039414243444546003031323334353637383961626364656600000000F8B5C046F8BC08BC9E467047B10100008D070000F8B5C046F8BC08BC9E46704789010000C3
:4031800090310000C0000020A0000000F001000000000000030001FF0000020000000000000000000000000050030020010000000000C05D80BB000030000000006CDC0292
:4031C000F00000000404040000000000000000000000000000000000000000000000000000000000000000002431000000000000000000000000000000000000000000007E
:4032000000000000000000000000000000000000000000000000000000000000000000000000000000000000F8000020000000000000000000000000000000000000000076
:40324000000000000000000000000000000000000000000000000000000000000000000000000000000000000000000000000000000000000000000000000000000000004E
:40328000000000000000000000000000000000000000000000000000000000000000000000000000000000000000000000000000000000000000000000000000000000000E
:4032C00000000000000000000000000000000000000000000000000000000000000000000000000000000000000000000000000000000000000000000000000000000000CE
:40330000000000000000000000000000000000000000000000000000000000000000000000000000000000000000000000000000000000000000000000000000000000008D
:020000040001F9
:0200000490303A
:02000000DEBF61
:0200000490402A
:4000000000000000000000000000000000000000000000000000000000000000000000000000000000000000000000000000000000000000000000000000000000000000C0
:400040000000000000000000000000000000000000000000000000000000000000000000000000000000000000000000000000000000000000000000000000000000000080
:0200000490501A
:0C000000000211A611A1000111B5F06072
:0200000490600A
:0100000001FE
:00000001FF