:400000000080002011000000790900007909000008B5044B1A6803F53F5302331A6000F0CBFC00BFFA46004010B5054C237833B9044B13B10448AFF300800123237010BDAC
:400040005881FF1F00000000FC350000084B10B51BB108490848AFF300800848036803B910BD074B002BFBD0BDE81040184700BF000000005C81FF1FFC350000C880FF1F80
:400080000000000010B562B601F0E0F8012001F091F80021012001F0E7F8364801F07CF800F0ECFA00F028FD4FF4FA7002F0DEF900F07AF90446012001F07CF80021012034
:4000C00001F0D2F82C4801F067F82C4802F076F92B4802F0B3F9012002F08AF9012002F07BF901F001FA30B101F0F8F90028FBD0022001F071FA234B1B783BB9224800F00F
:40010000DDFA003018BF01201E4B18701D4B1B7863B31D4B1B78412B15D0492B1AD11A4BDB78532B0AD124B10621184800F0DEFA10E00421164800F0D9FA0BE0112115482E
:4001400000F0D4FA06E0104B5B79322B02D10E4800F0DAF9002304E030210B4AD1540133DBB2132BF8D90022064B1A70642002F07DF9B6E7003600000C3600003102000090
:40018000650200007481FF1F8881FF1F18360000203600002836000010B5002300F028FE044600F0F3FE10F0020FFAD0204610BDF0B583B005460E461F4602A901F8012DB7
:4001C0000223012200F014FE044600F0DFFE10F0020F03D10D4800F0DFFFF6E70CB1204611E000F007FF01233A463146284600F065FE044600F0CAFE10F0010FFAD0002CCB
:40020000F1D100F0DFFE03B0F0BD00BFB081FF1F08B50222FFF7C0FF08BD00BF38B50C461D460123FFF7C4FF2870207838BD00BF08B5002002F0D0F80021012001F014F86E
:40024000064800F0A9FF02F097F80021012001F00BF8034800F0A0FF08BD00BF3C3600004C36000008B5002002F0C2F80021012000F0FAFF014800F08FFF08BD5C360000BD
:4002800010B5044C044B024621464920FFF7C6FF207810BD3082FF1FD880FF1F08B5044B1870597019464920FFF7B2FF08BD00BF4882FF1F10B504460020FFF7E1FF10F01F
:4002C000010F02D02046FFF7DBFF0020FFF7D8FF10F0020F03D0012002F0C8F8F5E721460120FFF7DBFF0020FFF7CAFF10F0010F03D1012002F0BAF8F5E70220FFF7C0FFD3
:4003000010BD00BF10B5002408E004F11400C0B2FFF7D0FF034B18550134E4B2172CF4D910BD00BF1882FF1F38B505460C460020FFF7A6FF10F0020FF9D145F0800101204F
:40034000FFF7ACFF0020FFF79BFF10F0020FF9D121460120FFF7A2FF38BD00BF38B50546847843781B01027843EA841444EA8204E4B221460420FFF7D7FF2C74204638BD98
:4003800038B5054604794279D2008179C37942EA041444EA41041C43E4B221460720FFF7C3FF6C74204638BD10B50020FFF782FF104C20720120FFF77DFF60720220FFF7D1
:4003C00079FF000260810320FFF774FF6389184460812046FFF7C2FF2046FFF7D1FFE1780520FFF7A1FF237A402B01D1012010BD002010BDCC80FF1F38B5012000F0DAFE9B
:400400000021084600F030FF1D4800F0C5FE1D4C217C0420FFF788FF0021084600F024FF194800F0B9FEE07802F0ECF912A3D3E9002302F04DFA02F05DFC02F017F8002479
:40044000012002F013F80420FFF734FF05460134E4B2C82C03D906210C4800F047F915F0020FEDD1FFF74EFF1821094800F03EF938BD00BFAFF30080333333333333174059
:4004800064360000CC80FF1F74360000843600001882FF1F0246A0F13003D8B2092812D9A2F14103DBB2052B03D8A2F13700C0B27047A2F16103DBB2052B03D8A2F157008F
:4004C000C0B270470020704738B505460078FFF7E1FF0001C4B26878FFF7DCFF2043C0B238BD00BF30B40024234608E0025D03EB83035D00AB189BB2303B9BB201348C4271
:40050000F4DB184630BC70472DE9F0410446C379473B0B2B00F29F80DFE803F0709D649D9D8A9D9D9D7D9D06437A472B4CD1C37A572B28D11330FFF7C7FF064604F1180013
:40054000FFF7C2FF074601463046FFF7EDFE0021084600F089FE414D3B4632464049284602F028FC284600F017FE0021012000F07BFE637E227E3B49284602F01BFC284657
:4005800000F00AFE20E0522B1ED11230FFF79CFF8046FFF78FFE0746334D02463349284602F008FC0021084600F05EFE2B4E3B4642462F49304602F0FDFB304600F0ECFD62
:4005C0000E21284600F092F8237B532B43D10021084600F049FE274800F0DEFDFFF70CFFBDE8F08103211630FFF77CFFC1B2224BD9700520FFF798FEBDE8F08101210C3094
:40060000FFF770FF1C4B00F0030058701846FFF7A5FEBDE8F08101211330FFF763FF164B00F0030018711846FFF7AAFEBDE8F081437C4E2B01D06E2B03D101220E4B5A71BD
:4006400006E0462B01D0662B02D100220A4B5A710948FFF795FEBDE8F08100BFB081FF1F8C360000A0360000D881FF1FAC360000C0360000D8360000CC80FF1F08B502216F
:40068000002000F0F3FE0021012000F0EDFD094800F082FD00F022FF0028FBD00021012000F0E2FD044800F077FD022000F094FF08BD00BFE4360000F036000038B50546F7
:4006C000022000F021FF01280CD10446022000F025FFC2B22946022000F094FF022000F07BFF00E00024204638BD00BFF8B507460E46002516E0012000F006FF0128FAD19D
:40070000741BA4B2282C00D92824012000F0FCFE012806D12246791900F014FF022000F05BFF2835B542E6DBF8BD00BFFEE700BFF0B40022174611E050F82760F3B226F01C
:40074000FF0608E001EB420511F812406D78A5550132013BDBB2002BF4D10137182FEBD9F0BC7047064B1B78DBB203F00701054A11701B09013213704422034B1A70704782
:40078000CF0100496E5800407658004008B50A46002102F006FB08BD38B541F2BF22244B1A80182202331A70062203F27E231A705222A3F580731A701E4B1B78DBB21E4A61
:4007C00013704FF4E2621D4B1A8041F25122023B1A80002419250CE0194B1B7803F0010343EA440404F003044FF4F07001F08CFE013D0DB1032CEFD115B90320FFF796FF3F
:40080000104A4FF4807313800723137000230E490B7048200231087013700532137002220A4B1A700A4A137843F00103137038BD804000400F010049A146004022420040EE
:4008400025420040044000400640004001400040A243004008B502F099FA08BD38B572B6314A137843F00403137000240CE02F4D630019194A0011462A440846918828582B
:40088000FFF784FF0134E4B2082CF0D928494FF09040FFF74DFF274A137843F0020313701032137843F002031370234C237843F040032370A2F58632513A137843F0100338
:4008C00013700A221D491E48FFF7C4FF0A221D491D48FFF7BFFF08221C491D48FFF7BAFF08221C491C48FFF7B5FF0A221B491C48FFF7B0FF08221B491B48FFF7ABFF1B4A4A
:40090000137843F008031370194D61232B70FFF743FFC1232B70FFF725FF0E2221461548FFF798FF38BD00BFE8460040FC3600006400004803500140A04300401C01004878
:40094000C051004028010048F051004034010048125100403C01004822510040440100483051004050010048625100402243004000480040B043004008B502F0DBF90368B4
:400980000C2B00D1FEE7FEE708B5094B1A681044084BC31AB3F5006F02DC054B186005E002F0C8F90C2303604FF0FF32104608BDE080FF1FF882FF1F08B5104E104D16E058
:4009C00029686B68AC68002204E051F8040B43F8040B0432A242F8D1E868002203E0002143F8041B04328242F9D11035013E002EE6D102F0A5F9FFF745FBFEE7010000004B
:400A00007C38000008B5104A104B1A60104A136843F40073136000230AE0032B03D80D4A52F8231000E00C490C4A42F8231001332F2BF2D90A4B1A780A4B1A70074A0A4B7D
:400A40001A60FFF70BFF08BD0004FA050CED00E014ED00E000000000790900000080FF1FBC760040C080FF1F08ED00E010B50222114B1A7081220E3B1A70082202331A7087
:400A80001E2211331A70002401331C704FF400420A4B1A6007210F2001F01CFD08490F2001F004FD1022074B1A70074B1C70074B1C70074B1C7010BDD649004080E100E008
:400AC000210B00004A82FF1F4E82FF1F5682FF1F4C82FF1F08B501F01FFD064A137843F0040313701032137843F00403137001F017FD08BDA543004008B5074B1B7823B9B4
:400B0000FFF7B4FF0122044B1A70FFF7E3FF4FF40042024B1A6008BD7581FF1F00E100E038B5A54B1C78A54B1B7813F0400F00F03A81E4B214F0010F00F01D819F4B1B78AC
:400B4000453B052B00F21481DFE813F006008200120112010600DF0004F0DF0504F00A04082C42D1954B1B78DBB2452B35D1944B1B7813F0FF0F10D0924B1B681B78DBB267
:400B8000914A137004228C4B1A7001228F4B1A7046228A4B1A702C46EDE08D4B1B7813F0020F0DD08B4A137843F00A0313706022824B1A704FF40042874B1A602C46DAE06E
:400BC000864A137843F0100313701022844B1A700422023B1A702C46CDE00022764B1A704A22764B1A702C46C5E00A2C2BD1794A137843F0A0031370754B1B7813F0020FBF
:400C000014D06E4B1B7813F0080F01D0092300E00A23704A11780B4313706022674B1A704FF400426C4B1A602C46A4E06B4A137843F0100313701022694B1A700422023B06
:400C40001A702C4697E0002001F00EFC2C4692E014F0020F36D15D4B1A78D2B2584B1B78DBB29A4210D2594A1378DBB255490968CB5CDBB254490B7004214F4B197013783E
:400C80000133DBB2137076E0514B1B7813F0020F0CD0504A137843F00A0313706022474B1A704FF400424C4B1A6064E04B4A137843F0100313701022494B1A700422023B7F
:400CC0001A7058E0424B1B7813F0020F0CD0414A137843F09A0313706022384B1A704FF400423D4B1A6046E03C4A137843F01003137010223A4B1A700422023B1A70354AF6
:400D0000137843F09003137035E0364A1378DBB2354908682C490978C9B2C15413780133DBB213701278D2B2304B1B78DBB29A4203D21022204B1A701DE0254B1B7813F06B
:400D4000020F0CD0234A137843F00903137060221A4B1A704FF400421F4B1A600BE01F4A137843F0100313700022134B1A7002E0002001F079FB14F0200F1CD00F4B1B78CD
:400D800013F0080F01D0012300E00223114A11780B431370114A137803F0EF0313701022064B1A7038BD054B1B7813F0100F02D11022024B1A7038BDD74900404A82FF1FFA
:400DC0004D82FF1F5882FF1FD84900404C82FF1F5482FF1F4E82FF1F80E100E0D6490040D94900405682FF1F5082FF1F5582FF1F002948D070B40C4626490978C9B21029A7
:400E000006D12549097811F0080F11D1002112E020490978C9B260290CD14FF400451F490D601F4D297801F0F7012970002102E0012100E0022149BB4526164D2E7000266A
:400E4000184D2E70184D2A70184A1460184A1370134C227802F0FD0222704200D2B21548027013F0010F06D012220B4B1A700422023B1A7002E00122074B1A704FF4004254
:400E80000D4B1A6002E0022108467047084670BC704700BF4A82FF1FD949004080E200E04E82FF1F4C82FF1F4D82FF1F5882FF1F5482FF1FD849004000E100E000294AD0C0
:400EC00070B40C4627490978C9B2102906D12649097811F0080F11D1002112E021490978C9B260290CD14FF4004520490D60204D297801F0F7012970002102E0012100E044
:400F0000022159BB4926174D2E700026194D2E70194D2A70194A1460194A1370144C227802F0FE0222704200D2B242F001021548027013F0010F06D012220B4B1A700422B7
:400F4000023B1A7002E00122074B1A704FF400420D4B1A6002E0022108467047084670BC704700BF4A82FF1FD949004080E200E04E82FF1F5682FF1F5582FF1F5082FF1F21
:400F80005482FF1FD849004000E100E04FF40042084B1A60084B1878C0B2084B1B7813F0400F01D040F004004FF40042044B1A60704700BF80E100E04E82FF1F4A82FF1F5A
:400FC00000E100E04FF40042064B1A600021064B197006490B7803F0FE030B70044B1A60704700BF80E100E05682FF1F4E82FF1F00E100E04FF40042064B1A600021064BBD
:40100000197006490B7803F0FD030B70044B1A60704700BF80E100E04C82FF1F4E82FF1F00E100E010B50B4C237803F09F032370237803F0F00323702378184340F01000A3
:401040002070012001F028FA237803F0EF03237010BD00BF2051004038B505460E4C237843F020032370237803F0BF032370002001F012FA237803F0F003237023781D4337
:4010800045F010052570012001F006FA237803F0EF03237038BD00BF2051004070B5354B1A7802F08002D2B21A7033490A7802F0F00242F00F020A7001310A7802F0F002D7
:4010C0000A7001310A7802F0F0020A701A7802F0DF021A701A7842F040021A704FF4CA76002001F0D9F9234D2B7843F010032B70012001F0D1F9214B1C78E4B22B7803F083
:40110000EF032B70002001F0C7F904F00804E4B22B7843F010032B70012001F0BDF92B7803F0EF032B7014B90A2001F0B5F9013E0CB1002ED4D10F4A137803F0BF031370CB
:40114000137803F08003DBB213700232137803F0F00313700132137803F0F00343F00F0313700132137803F0F00343F00F03137070BD00BF2051004022510040215100405C
:4011800010B50446FFF78AFF2009FFF765FF04F00F00FFF761FF10BD38B505460078012404E0FFF7EDFF285D0134E4B20028F8D138BD00BF10B50446FFF770FF2009FFF7D5
:4011C00031FF04F00F00FFF72DFF10BD08B5282001F04CF90320FFF725FF052001F046F90320FFF71FFF0F2001F040F90320FFF719FF012001F03AF90220FFF713FF0520AB
:4012000001F034F90620FFF7D5FF0E20FFF7D2FF2C20FFF7CFFF0820FFF7CCFF0120FFF7C9FF0C20FFF7C6FF0320FFF7C3FF052001F01CF908BD00BF08B50C20FFF7BAFFCA
:401240000122014B1A7008BD7681FF1F08B5054B5B7823B9FFF7BAFF0122024B5A70FFF7EBFF08BD7681FF1F08B5032819D8DFE800F002070D1381F08000FFF79BFF08BD3D
:40128000A1F14000C0B2FFF795FF08BDA1F16C00C0B2FFF78FFF08BDA1F12C00C0B2FFF789FF08BDF8B501F037F90646384A137843F0010313701032137843F00103137007
:4012C0000125344B1D700227943B1F7002F5E2521B32137803F07F031370002001F0DCF82D4C237803F0F90323702C4A137803F0DF03137023782B432370284601F0CCF8A7
:40130000282001F0C9F8264B1A7802F07F021A701A7802F0BF021A7023783B432370384601F0BAF8237843F00403237000241D4B1C7001331C70304601F0F2F80721172027
:4013400001F0C8F81849172001F0B0F80721182001F0C0F81549182001F0A8F80721204601F0B8F81249204601F0A0F80721284601F0B0F80F49284601F098F807210C2018
:4013800001F0A8F80C490C2001F090F8F8BD00BFA54300409D6000409443004012600040F851004084600040E51A000055190000811A0000B11A0000ED1A000008B51F4B52
:4013C000187000231E4A13701E4A13701E4A13701E4A13701E4A13701E4A13701E4A13701E4B4FF400021A604FF080721A6001221A6002221A6011B1012906D00BE0184AB8
:40140000137803F0FE0313700AE0154A137843F00103137004E0124A137843F0010313700322104B1A708022203B1A70012001F06BF804220C4B1A7008BD00BF7082FF1FF6
:401440007682FF1F7482FF1F7582FF1F7182FF1F5C82FF1F7382FF1FEC82FF1F00E100E009600040286000401260004038B504460D46064B1B7823B9FFF714FF0122034BD9
:401480001A7029462046FFF799FF38BD7881FF1F00230A4A13700A4A13700A4A13700A4A13700A4A13700A4A13700A4A13700322094B1A708022203B1A7070477682FF1FD8
:4014C0007482FF1F7582FF1F7182FF1F5C82FF1F7382FF1FEC82FF1F28600040014B1878704700BF7582FF1F064B1B7813F0FF0F05D0044B1878C0B200221A70704700204A
:40150000704700BF7482FF1F00EB40008300024A13445878704700BF8082FF1F431EDBB2072B0BD8064B00011A18185C00F00F00537843EA0020023880B27047002070475E
:40154000FC5F0040431EDBB2072B3CD8F0B4074600EB4004A3001C4C2344DB889BB2C3F500739A4208D900EB400293002344DA8892B2C2F5007292B200EB4004A300124C08
:401580002344DB7843EA1223104D04012E192B55D3B2737039B909E0CE5C3D010C4C665501339BB200E000239A42F5D8420002449300054A134400225A705A79D2B20001F6
:4015C000044B1A54F0BC70478082FF1FFC5F004078600040FE5F0040431EDBB2072B0BD8420002449300054A134400225A705A79D2B20001024B1A54704700BF8082FF1F02
:40160000FE5F004070B5D9B1054614460E46C8B1082819D8FFF782FFA04203D22846FFF77DFF0446002305E02901094A525CF25401339BB2A342F7D32846FFF7CDFF04E0B6
:40164000002402E0002400E00024204670BD00BF786000401D4B19781D4A13889BB20B449BB2138000220FE01A494B681B78DBB2194883544B6801334B600132D2B20B8800
:401680009BB2013B9BB20B80124B1B889BB20BB1072AE9D90D4B1B78DBB2082B00D05AB10E490B7883F080030B700F210C4B197002210C4B197004E0022309490B700949C1
:4016C0000B70094B1A70014B1A707047EC82FF1FF282FF1F6482FF1F006000407282FF1F5D82FF1F7682FF1FED82FF1F0222074B1A708022064B1A700F22064B1A700023E4
:40170000054A1370054A1370012070477682FF1F7282FF1F5D82FF1FEC82FF1FED82FF1F08B5FFF797FF08BD10B4194B197801F00F010239C9B2174A13889BB20B449BB28C
:401740001380002011E0144A5468144B1B5CDBB223705368013353600130C0B20139C9B213889BB2013B9BB213800B4B1B889BB20BB10029E7D10A4B19700A4A137883F0A4
:40178000800313700B22084B1A7010BC704700BF29600040F282FF1F6482FF1F00600040ED82FF1F7282FF1F5D82FF1F0623064A1370064A13708022054B1A700022054B7F
:4017C0001A700120704700BF7682FF1F5D82FF1F7282FF1FED82FF1F064B9B6843B1054B9A6810709A6804490988518000229A60704700BF6482FF1FF282FF1F08B5134B08
:401800001A78D2B21A701B78DBB213F0800F02D00F4A137008BD0220FFF7DEFF0D4B1B7803F06003202B05D0402B06D043B900F003FC06E000F078FE03E000F091FD00E0D4
:40184000002010B90322024B1A7008BD286000405D82FF1F0060004008B5094B1978094A13889BB20B449BB213800022064B1A700120FFF7B1FF0322044B1A7008BD00BF07
:40188000EC82FF1FF282FF1F7682FF1F5D82FF1F08B50B4B1B78DBB2042B06D0062B07D0022B0BD1FFF7D8FF08BDFFF73DFF08BD0320FFF791FF0322024B1A7008BD00BFFC
:4018C0007682FF1F5D82FF1F08B50022044B1A700120FFF781FF0322024B1A7008BD00BF7682FF1F5D82FF1F08B50B4B1B7813F0FF0F07D0084A137843F0800307490B7007
:40190000002313700022064B1A700120FFF764FF0322044B1A7008BD5C82FF1F086000407682FF1F5D82FF1F08B5094B1B78DBB2042B06D0062B07D0022B07D1FFF7F0FEE9
:4019400008BDFFF7C1FF08BDFFF7CEFF08BD00BF7682FF1F08B5284B1B78DBB213F0100F48D013F0800F0CD003F00F03012B16D1FFF744FF214B1B7813F0800F11D10123EA
:4019800012E013F0400F03D0FFF7CEFF01230BE013F0200F07D0FFF77BFF012304E0002302E0002300E0002323B3134B1B7813F0800F1FD1124B1B78124A12781343124AC1
:4019C00013701278D2B2934214D10C4B1B78DBB2094A127812F0800F07D1084B1B78DBB2054A1370137803F00F03044A1278D2B29342EAD108BD00BF286000405D82FF1FD5
:401A00007282FF1FED82FF1F296000400022064B1A80064B9B682BB1044A916800230B7092685380704700BFF282FF1F6482FF1F08B50F4B1B889BB213B9FFF757FE15E030
:401A400002220C4B1A7000220B4B1A70FFF7DEFF0A4AD179937943EA0123054A128892B2934201D2024A1380FFF7F4FD012008BD6482FF1F7682FF1F7282FF1F0060004044
:401A80000122094B1A700F3B9B7C084B1B7B03F00303934204D0054AD37B83F08003D3730122024B5A7370470B6000408082FF1F02220A4B1A700F3B93F82230084B1B7E8B
:401AC00003F00303012B04D0054AD37E83F08003D3760122024B5A76704700BF0B6000408082FF1F08B5FFF7D3FC08BD08B500F0B3FC08BD10B401233EE019461A010C2475
:401B00002148845403EB4300820020480244527912F0FF0F13D003EB430082001B480244127912F0800F04D01801194A024494700AE01801164A02440820907004E0180165
:401B4000134A0244802090704800084482000F480244D488E4B208010B4901448C71D088C0F30720C871D088C0B20871D288C2F307224A710133DBB2082BBED9FF22054B41
:401B80001A7010BC704700BF706000408082FF1FFC5F00400A600040074B1A78074B03EBC2035B681A7C824204D9C0001030184440687047002070477082FF1F34370000F4
:401BC000F8B5404B1B7813F0FF0F79D03D4B18780138C0B2FFF7E0FF047AC2683A4B1878C0B200236AE01178884264D13749095CC9B25578A9425ED1917801F07F01D678F5
:401C000006F00306DFF8C8E04D000D44AF000EEB07054FF0000C85F803C092F802C085F804C092F803C00EF807C097882F8192F90250002D0DDA012E01D1072700E00D279F
:401C40004E000E44B500224E35446F7101266E700CE0012E01D1052700E009274E000E44B5001B4E35446F7100266E70DFF868E00F010EEB07060125B57001FA05F529441B
:401C80008D00134929440D89C5F307250EF807500D89EDB27570CE88F6B20E4D3D44AE71CE88C6F30726EE71CE88F6B22E71C988C1F30721697108320133DBB2A34292D360
:401CC000F8BD00BF7582FF1F7182FF1F6082FF1F8082FF1F70600040FC5F0040034B1A78034B03EBC2035868704700BF7082FF1F3437000008B5084B18780138C0B2FFF7AC
:401D00004BFF30B142681279023200EBC203586808BD002008BD00BF7582FF1F2DE9F041002310E0684D5900CA189600AC190022AA55A270E2702281A272627034462C4484
:401D400062710133DBB2082BECD940B90AE000225E49CA545E49CA540133DBB200E00023002BF4D05B4B1B7813F0FF0F00F0A980584B18780138C0B2FFF70EFF4368DB7952
:401D800013F0400F05D0544A137843F00103137004E0514A137803F0FE031370057A012464E0C16800235DE08A7802F07F02944255D1264604EB4407BA00434F3A441289AB
:401DC00092B28F88BA4207D204EB440E4FEA8E02DFF8F4E0724417810A783C4FBA5CD2B24F78BA423BD191F802C0DFF8DCE07200324497000EEB070282F804C0CA780EF855
:401E00000720CA7802F0030291F90270002F13DA012A02D14FF0070801E04FF00D08DFF8A8E0720002EB060C4FEA8C07774487F8058001267E7012E0012A02D14FF00508FD
:401E400001E04FF00908DFF880E0720002EB060C4FEA8C07774487F8058000267E7008310133DBB2AB429FD30134E4B2082C98D9C06800220CE0837803F07F0310F8084B20
:401E800003EB43039900104B19448C720132D2B2AA42F0D3FFF72EFF104B1860002101230BE0094D5A00D01884002C44E180228992B2114489B20133DBB2082BF1D9FFF7F3
:401EC00019FEBDE8F08100BF8082FF1F6082FF1FF082FF1F7582FF1F7382FF1F7C82FF1F08B5154B1B7903F07F035A1ED2B2072A20D8590019448A0010490A44917841F096
:401F0000010191700021D170517841F002015170127912F0800F05D01B01094A1A448D23937004E01B01064A1A4489239370FFF73DFC08BD002008BD006000408082FF1F17
:401F4000FC5F0040264B1B7903F07F035A1ED2B2072A43D810B5590019448A0021490A44917801F0FE0191700021D17019017F241D484454517801F0FD015170127912F02B
:401F8000800F14D003EB43018A0016490A445278D2B2012A05D11B0102461A440C23937019E01B01104A1A440D23937013E003EB43018A000B490A445278D2B2012A05D162
:401FC0001B01094A1A440823937004E01B01064A1A4409239370FFF7E9FB10BD00207047006000408082FF1FFC5F004010B50E4B1C79E4B20D4B18780138C0B2FFF7CCFD95
:4020000043681B799C4201D9012C0AD8084A135DDBB208490B55044B9B78DBB21355012010BD002010BD00BF006000407582FF1F6082FF1FF082FF1F10B59B4B1B78DBB299
:4020400000219A4A118013F0800F00F09C80964A5278D2B20A2A00F25F81DFE812F058005D015D015D015D015D010B005D0181005D0189008C4BDB78DBB2012B09D1FFF77D
:402080002DFE4268894B5A6012221A80FFF7D0FC10BD854BDB78DBB2022B13D1824B9878FFF77AFD002800F0398142687F4B5A605A68D1785A68927842EA01221A80FFF79F
:4020C000B7FC10BD784BDB78DBB2032B05D01BE00A7811440133DBB201E000237449724A9278D2B2934203D20A7812F0FF0FEFD10B7813F0FF0F00F013810B786B4A13803D
:402100005160FFF795FC10BD00F00EFA10BD13F0030317D0022B40F0058164490B80624B1B7903F07F0303EB43039A00614B1A449278D2B2604B1A7000225A704B60FFF7EC
:4021400077FC10BD594902230B805C4B1A78D2B2594B1A7000225A704B60FFF769FC10BD524B01221A80564A5A60FFF761FC10BD4E4A012313804C4B1B7952490B44536038
:40218000FFF756FC10BD484A5278013A0A2A00F2CB80DFE812F04C00C9007900C9000B00C900C900C9001300C90030003E4B9B78DBB2454A1370FFF7F9FA10BD3A4B9B78E7
:4021C00003F0FF041BB1601EC0B2FFF7E5FC04B110B9002C40F0AA80394B1B78DBB29C4206D0374B1C700120384B1870FFF796FDFFF7DCFA10BDFFF7F9FE002800F0988081
:40220000294A1379DBB21279D2B231490A70314AD25CD2B22B49CB5CDBB29A4204D001222A4B1A70FFF7CCFCFFF7C0FA10BD03F00303012B17D04BB1022B7BD11A4B9B78B4
:4022400013F0FF0F78D1FFF77DFE10BD164B9B78DBB2012B72D1194A137803F0FD031370FFF7A4FA10BD104B1B7913F0FF0F67D10D4B98781B79DBB21749CA5C22EA00023C
:40228000CA54FFF793FA10BD03F00303012B32D023B3022B56D1044B9B7813F0FF0F53D1FFF71EFE10BD00BF006000406482FF1F883700008082FF1F7C81FF1F7382FF1F79
:4022C0007582FF1F6082FF1F5C82FF1F7482FF1F7182FF1FF082FF1F7882FF1F1D4B9B78DBB2012B32D11C4A137843F002031370FFF75CFA10BD174B1B7913F0FF0F27D105
:40230000144B98781B79DBB21449CA5C22EA0002CA54FFF74BFA10BD002010BD002010BD002010BD002010BD002010BD002010BD002010BD002010BD002010BD002010BD14
:40234000002010BD002010BD002010BD002010BD002010BD006000407382FF1F7882FF1F044B1B7813F0800F01D0024B5B780020704700BF00600040024B1878C0F3800046
:40238000704700BF83450040014B1B68D865704708ED00E04001C0B2014B1870704700BF07E400E08022014B1A60704700E100E08022014B1A60704780E100E010B50446F0
:4023C000FFF7F6FF2046FFF7DFFF0720FFF7E2FFFFF7E8FF10BD00BF044A137803F0F703C00000F0080018431070704760510040044A137803F0FB03800000F004001843B7
:402400001070704760510040014B1B689864704708ED00E04001C0B2014B1870704700BF02E400E00422014B1A60704700E100E00422014B1A60704780E100E010B5044603
:40244000FFF7F6FF2046FFF7DFFF0720FFF7E2FFFFF7E8FF10BD00BF024B1878C0F38010704700BF8F45004001BE704710B5044605E0084B186800F047F8A4F50044B4F534
:40248000004FF6D8034B586800FB04F000F03CF810BD00BFE480FF1F08B5034B1B7A00FB03F000F031F808BDE480FF1F70B504460E46074B1D681F2802D90020FFF7D4FF3D
:4024C00004F01F04103455F8240045F8246070BD08ED00E038B504460D46072902D90020FFF7C2FF1F2C02D90020FFF7BDFF04F01F0000F1604000F564406D01EDB205702A
:4025000038BD00BF000000000230800803D000BF01380046FCD17047EFF3108072B6704780F31088704700BF0B4B1B7803F00303012B02D0022B03D00CE0074B1B7909E02B
:40254000054B1B7903F07F0303EB43039A00034B1A44937A00207047006000408082FF1F81F0004102E000BF83F0004330B54FEA41044FEA430594EA050F08BF90EA020F13
:402580001FBF54EA000C55EA020C7FEA645C7FEA655C00F0E2804FEA5454D4EB5555B8BF6D420CDD2C4480EA020281EA030382EA000083EA010180EA020281EA0303362D3C
:4025C00088BF30BD11F0004F4FEA01314FF4801C4CEA113102D0404261EB410113F0004F4FEA03334CEA133302D0524263EB430394EA050F00F0A780A4F10104D5F1200E45
:402600000DDB02FA0EFC22FA05F2801841F1000103FA0EF2801843FA05F359410EE0A5F120050EF1200E012A03FA0EFC28BF4CF0020C43FA05F3C01851EBE37101F000455E
:4026400007D54FF0000EDCF1000C7EEB00006EEB0101B1F5801F1BD3B1F5001F0CD349085FEA30004FEA3C0C04F101044FEA445212F5800F80F09A80BCF1004F08BF5FEA7D
:40268000500C50F1000041EB045141EA050130BD5FEA4C0C404141EB010111F4801FA4F10104E9D191F0000F04BF01460020B1FA81F308BF2033A3F10B03B3F120020CDA55
:4026C0000C3208DD02F1140CC2F10C0201FA0CF021FA02F10CE002F11402D8BFC2F1200C01FA02F120FA0CFCDCBF41EA0C019040E41AA2BF01EB0451294330BD6FEA040466
:402700001F3C1CDA0C340EDC04F11404C4F1200220FA04F001FA02F340EA030021FA04F345EA030130BDC4F10C04C4F1200220FA02F001FA04F340EA0300294630BD21FA9F
:4027400004F0294630BD94F0000F83F4801306BF81F480110134013D4EE77FEA645C18BF7FEA655C29D094EA050F08BF90EA020F05D054EA000C04BF1946104630BD91EAF3
:40278000030F1EBF0021002030BD5FEA545C05D14000494128BF41F0004130BD14F580043CBF01F5801130BD01F0004545F0FE4141F470014FF0000030BD7FEA645C1ABFA3
:4027C000194610467FEA655C1CBF0B46024650EA013406BF52EA033591EA030F41F4002130BD00BF90F0000F04BF0021704730B54FF4806404F132044FF000054FF000016A
:4028000050E700BF90F0000F04BF0021704730B54FF4806404F1320410F0004548BF40424FF000013EE700BF42004FEAE2014FEA31014FEA02701FBF12F07F4393F07F4FE8
:4028400081F06051704792F0000F14BF93F07F4F704730B54FF4607401F0004521F0004120E700BF50EA010208BF704730B54FF000050AE050EA010208BF704730B511F05A
:40288000004502D5404261EB41014FF4806404F132045FEA915C3FF4DCAE4FF003025FEADC0C18BF03325FEADC0C18BF033202EBDC02C2F1200300FA03FC20FA02F001FA48
:4028C00003FE40EA0E0021FA02F11444C1E600BF70B54FF0FF0C4CF4E06C1CEA11541DBF1CEA135594EA0C0F95EA0C0F00F0DEF82C4481EA030621EA4C5123EA4C5350EAB8
:40290000013518BF52EA033541F4801143F4801338D0A0FB02CE4FF00005E1FB02E506F00042E0FB03E54FF00006E1FB03569CF0000F18BF4EF0010EA4F1FF04B6F5007F16
:4029400064F5407404D25FEA4E0E6D4146EB060642EAC62141EA55514FEAC52040EA5E504FEACE2EB4F1FD0C88BFBCF5E06F1ED8BEF1004F08BF5FEA500E50F1000041EB11
:40298000045170BD06F0004646EA010140EA020081EA0301B4EB5C04C2BFD4EB0C0541EA045170BD41F480114FF0000E013C00F3AB8014F1360FDEBF002001F0004170BDBB
:4029C000C4F10004203C35DA0C341BDC04F11404C4F1200500FA05F320FA04F001FA05F240EA020001F0004221F0004110EBD37021FA04F642EB06015EEA430E08BF20EA01
:402A0000D37070BDC4F10C04C4F1200500FA04F320FA05F001FA04F240EA020001F0004110EBD37041F100015EEA430E08BF20EAD37070BDC4F1200500FA05F24EEA020EDA
:402A400020FA04F301FA05F243EA020321FA04F001F0004121FA04F220EA020000EBD3705EEA430E08BF20EAD37070BD94F0000F0FD101F00046400041EB010111F4801FFF
:402A800008BF013CF7D041EA060195F0000F18BF704703F00046520043EB030313F4801F08BF013DF7D043EA0603704794EA0C0F0CEA135518BF95EA0C0F0CD050EA410614
:402AC00018BF52EA4306D1D181EA030101F000414FF0000070BD50EA410606BF1046194652EA430619D094EA0C0F02D150EA013613D195EA0C0F05D152EA03361CBF10468B
:402B000019460AD181EA030101F0004141F0FE4141F470014FF0000070BD41F0FE4141F4780170BD70B54FF0FF0C4CF4E06C1CEA11541DBF1CEA135594EA0C0F95EA0C0F0A
:402B400000F0A7F8A4EB050481EA030E52EA03354FEA013100F088804FEA03334FF0805545EA131343EA12634FEA022245EA111545EA10654FEA00260EF000419D4208BFC7
:402B8000964244F1FD0404F5407402D25B084FEA3202B61A65EB03055B084FEA32024FF480104FF4002CB6EB020E75EB030E22BFB61A754640EA0C005B084FEA3202B6EB47
:402BC000020E75EB030E22BFB61A754640EA5C005B084FEA3202B6EB020E75EB030E22BFB61A754640EA9C005B084FEA3202B6EB020E75EB030E22BFB61A754640EADC00DA
:402C000055EA060E18D04FEA051545EA16754FEA06164FEAC30343EA52734FEAC2025FEA1C1CC0D111F4801F0BD141EA00014FF000004FF0004CB6E711F4801F04BF014339
:402C40000020B4F1FD0C88BFBCF5E06F3FF6AFAEB5EB030C04BFB6EB020C5FEA500C50F1000041EB045170BD0EF0004E4EEA113114EB5C04C2BFD4EB0C0541EA045170BDD5
:402C800041F480114FF0000E013C90E645EA060E8DE60CEA135594EA0C0F08BF95EA0C0F3FF43BAF94EA0C0F0AD150EA01347FF434AF95EA0C0F7FF425AF104619462CE741
:402CC00095EA0C0F06D152EA03353FF4FDAE1046194622E750EA410618BF52EA43067FF4C5AE50EA41047FF40DAF52EA43057FF4EBAE12E74A0011D212F5001211D20DD54E
:402D00006FF47873B3EB62520ED44FEAC12343F0004343EA505323FA02F070474FF00000704750EA013002D14FF0FF3070474FF000007047014B1868704700BF5481FF1F64
:402D40000E4B70B51E460E4C0025E41AA410A54204D056F8253098470135F8E700F07CFD084B094C1E46E41AA4100025A54204D056F8253098470135F8E770BD6438000087
:402D800064380000643800006C38000010B5431E0A44914204D011F8014B03F8014FF8E710BD03460244934202D003F8011BFAE7704700000EB400B54FF402719CB0ADF8CD
:402DC00014106FF00041049107914FF6FF711DAB02900690084853F8042BADF81610006802A9019300F064F8029B00221A701CB05DF804EB03B070475481FF1F2DE9F047B2
:402E00008E6882469E420C46914698463ED88A8912F4906F3AD02568096902236F1A656905EB450595FBF3F57B1C43449D4238BF1D4653050FD5294600F040FB064698B1C6
:402E40003A462169FFF7A2FFA38923F4906343F08003A38113E02A4600F08EFB064670B92169504600F0DEFA0C23CAF80030A3894FF0FF3043F04003A381BDE8F087266170
:402E80003E44266046466561ED1BA560464528BF464649463246206800F0A8FAA36800209B1BA36023681E442660BDE8F08700002DE9F04F9DB003938B8980461C060D4692
:402EC00016460DD50B695BB9402100F0F7FA2860286118B90C23C8F80030CDE040236B610023099320238DF82930DFF89CB130238DF82A3037463C4614F8013B1BB9B7EBFA
:402F0000060910D003E0252BF9D02746F3E74B46324629464046FFF771FF013000F0A780099B4B4409933B78002B00F0A08000234FF0FF3204930793059206938DF85330FA
:402F40001A930126052221784E4800F041FA671C049B38B14B4A3C46801A06FA00F018430490EFE7D90644BF20228DF853201A0744BF2B228DF8532022782A2A03D0079AA4
:402F800000210A200BE0039A111D12680391002A10DA524243F00200079204900BE027463B780134303B092B03D800FB02320121F5E701B107923B782E2B1ED17B782A2B83
:402FC0000AD1039B02371A1D1B680392002BB8BF4FF0FF33059310E0002319460593781C0A2407463A780130303A092A03D804FB01210123F5E703B1059103223978224806
:4030000000F0E6F940B14023CBEB000003FA00F0049B013718430490397806221B487E1C8DF8281000F0D4F988B1194B33B9039B073323F007030833039314E003AB009330
:403040002A46144B04A94046AFF3008007E003AB00932A460F4B04A9404600F093F8B0F1FF3F824603D0099B5344099342E7AB895B0601D4099801E04FF0FF301DB0BDE846
:40308000F08F00BF243800002A3800002E38000000000000FD2D00002DE9F04791461F460A698B6806469342B8BF1346C9F8003091F843200C46DDF8208012B10133C9F848
:4030C00000302368990642BFD9F800300233C9F80030256815F0060510D104F1190A07E00123524639463046C04701301AD00135E368D9F800209B1A9D42F1DB94F843302D
:403100002268003318BF012392060FD5E118302081F843005A1C94F845102244023382F8431003E04FF0FF30BDE8F08704F1430239463046C0470130F4D02268D9F8005054
:40314000E36802F00602042A08BF5D1B2269A3680CBF25EAE57500259342C4BF9B1AED184FF000091A344D4509D00123224639463046C0470130D5D009F10109F3E700203F
:40318000BDE8F0872DE9F04317460A7E85B06E2A984606460C460C9B01F1430E00F0AE8011D8632A22D009D8002A00F0BB80582A40F0CA8081F84520834955E0642A1ED07F
:4031C000692A1CD0C0E0732A00F0B08009D86F2A2ED0702A40F0B8800A6842F020020A603EE0752A24D0782A3AD0ADE01A6801F14205111D1960136884F84230A8E0216883
:403200001A6811F0800F02D0111D196008E011F0400F02F10401196002D0B2F9003000E01368002B3CDA2D225B4284F8432037E021681A6811F0800F02D0111D196007E034
:4032400011F0400F02F10401196001D0138800E01368227E5C496F2A14BF0A2208221BE078225A4984F845202268186812F0800F00F104051D6003D1550601D5038800E024
:403280000368D00744BF42F0200222601BB9226822F0200222601022002084F8430001E049490A226568002DA56008DB206820F0040020602BB9002D7DD175460CE0002B00
:4032C00079D07546B3FBF2F002FB1033CB5C05F8013D03460028F5D1082A0BD12368DA0708D5236962689A42DEBF302305F8013C05F1FF35C5EB0E0323612EE008681A683F
:4033000010F0800F496903D0101D1860136808E010F0400F02F104001860136801D0198000E0196000232361754616E01A68111D1960156800216268284600F049F808B134
:40334000401B6060636804E004F1420584F8422001232361002384F84330CDF800803B4603AA21463046FFF797FE013002D14FF0FF3026E023692A4639463046C047013033
:40338000F5D023689B0710D5002504F1190907E001234A4639463046C0470130E7D00135E368039A9B1A9D42F2DBE068039B9842B8BF184605E00B7804F1420584F84230D5
:4033C0008AE705B0BDE8F083353800004638000010B5C9B202449042034605D01C7801308C42F8D1184610BD002010BD884210B501EB020301D8421E0BE09842FBD28118D6
:40340000D21AD34204D013F8014D01F8014DF8E710BD994204D011F8014B02F8014FF8E710BD000038B50546002944D051F8043C0C1F002BB8BFE41800F0D4F81E4A13680B
:40344000114613B96360146030E0A3420DD92268A018834201BF18685B681218226063600C6023E0A24203D813465A68002AF9D118681918A1420BD12168014458188242EF
:40348000196013D110685268014419605A600DE002D90C232B6009E021686018824201BF106852680918216062605C602846BDE8384000F098B838BD8481FF1F70B5CD1CD2
:4034C00025F0030508350C2D38BF0C25002D064601DBA94202D90C23336046E000F082F8234B1C681A462146A1B10B685B1B0ED40B2B03D90B60CC18CD501EE08C420BBFBA
:4035000063684B681360636018BF0C4615E00C464968E9E7174C23681BB9304600F052F820602946304600F04DF8431C18D0C41C24F00304A0420DD12560304600F053F8A2
:4035400004F10B00231D20F00700C31A0ED05A42E25070BD211A304600F034F80130EBD10C233360304600F03EF8002070BD00BF8481FF1F8081FF1FF8B5074615460E462F
:4035800021B91146BDE8F840FFF798BF1AB9FFF749FF2846F8BD00F027F885420ED929463846FFF78BFF044650B131462A46FFF7EDFB31463846FFF735FF01E03046F8BD17
:4035C0002046F8BD38B5064C0023054608462360FDF7DAF9431C02D1236803B12B6038BDF482FF1F7047704751F8040C0028BEBF091851F8043CC018043870470000000005
:40360000636865636B31202020000000636865636B3320202000000041533732363200004E6F6E650000000050536F432D5370656374726F6D6574657200000053696E6765
:403640006C655265616433612000000053696E676C6552656164336220000000646562756731200053696E676C655265616420200000000053696E676C6552656164322010
:40368000200000004641494C45440000523A3078253032787C763A307825303278202000423A25637C763A25632020005245475F56414C55457C307825303258000000004A
:4036C000526567523A3078253032787C763A3078253032782020000053696E676C65205265616400636865636B31612020200000636865636B31622020200000C849004036
:403700001900004F00400C0000510040100040510040200000000140001000140140000800400140000A004C014000020050014020000000010000003C3700000100000055
:40374000103800000000000000000000010000005437000001000000F0370000020000007837000000000000000000000000000074370000FF000000000081032800FF0047
:40378000000002032800FF000403090428034E006100720065007300750061006E00200055006E00690076006500720073006900740079001A0353007000650063007400E3
:4037C00072006F006D0065007400650072001403550053004200200063006F006D006D0073000C035500530042005F00300000000902200001010380320904000002FF0013
:40380000000407058103280004070502032800321201000200000008B40451800000010200014300232D302B2000686C4C0065666745464700303132333435363738394133
:40384000424344454600303132333435363738396162636465660000F8B500BFF8BC08BC9E4670474D000000050A0000F8B500BFF8BC08BC9E467047290000009038000047
:40388000C880FF1F90000000A00100000000000000000000030001FF00000200000000000000000000000000F882FF1F0000C05D80BB000030000000006CDC020000000002
:4038C000000000000000000000000000000000000000000000000000000000002238000000000000000000000000000000000000000000000000000000000000000000006E
:4039000000000000000000000000000000000000000000000000000000000000F480FF1F0000000000000000000000000000000000000000000000000000000000000000F5
:403940000000000000000000000000000000000000000000000000000000000000000000000000000000000000000000000000000000000000000000000000000000000047
:403980000000000000000000000000000000000000000000000000000000000000000000000000000000000000000000000000000000000000000000000000000000000007
:4039C00000000000000000000000000000000000000000000000000000000000000000000000000000000000000000000000000000000000000000000000000000000000C7
:403A00000000000000000000000000000000000000000000000000000000000000000000000000000000000000000000000000000000000000000000000000000000000086
:020000040003F7
:0200000480007A
:4000000002450040014F00400352004001030140020D0140070E0140050F0140011501400117014001190140011B01400340014005410140074201400343014006440140C5
:4000400004450140024601400547014005480140054901400B4C0140064D014002500140025101401A027E020A4B602061307C40EE08AF01B52038023E01560858045B04A5
:400080005D905F011B01584059208840D60CEA01EE0AEE0AEA0133883640CC70A301A640A788AF01EE103E106302A301A640A788CE20D6409610A640A788110112201420DF
:4000C0008820C40CE20191019820B620EA089101982008080F4091019820C20C9610A708AE40AF80EE500308A708AA10C040EA8010401320148079017C2091019820AC0819
:40010000AF40C40EDE0378407C8098C0AB20DC01DE0401010F01003A03C000003000000030003000000000004000000000000000C0000000000B0B0000000000007F7F00D4
:4001400000000000040000040000000000010000000C0C0000000000000000000000000000000000000000000000000000000000000000000000000000000000000000005E
:40018000000000000000000000000000000000000000000000000000000000000000000000000000000000000000000000000000000000000000000000000000000000003F
:4001C00000000000000000000000000000000000000000000000000000000000000000000000000000000000000000000000000000000000000000000000000000000000FF
:4002000000000000000000000000000000000000000000000000000000000000000000000000000000000000000000000000000000000000000000000000000000000000BE
:40024000000000000000000000000000000000000000000000000000000000000000000000000000000000000000000000000000000000000000000000000000000000007E
:0200000490006A
:0400000000004005B7
:0200000490105A
:04000000BC90ACAF55
:0200000490303A
:02000000B54603
:0200000490402A
:4000000000000000000000000000000000000000000000000000000000000000000000000000000000000000000000000000000000000000000000000000000000000000C0
:400040000000000000000000000000000000000000000000000000000000000000000000000000000000000000000000000000000000000000000000000000000000000080
:400080000000000000000000000000000000000000000000000000000000000000000000000000000000000000000000000000000000000000000000000000000000000040
:4000C0000000000000000000000000000000000000000000000000000000000000000000000000000000000000000000000000000000000000000000000000000000000000
:0200000490501A
:0C00000000012E12306900012E27E5AF30
:00000001FF